:020000040000FA
:06000000C1EF0AF012003E
:020006001200E6
:06000800CDEF06F012002E
:02000E000302EB
:03001000010000EC
:06001800CFEF06F012001C
:02001E000200DE
:100020000E000000E9000000050000009E15000021
:08003000C800000011000000EF
:08003800E9EC04F06A6A686A51
:100040009F0E6B6EFB0E696E6D8C6D9C6E6ACDECB7
:1000500004F0DF6AEEEC04F010E2DF50040DF3CFA1
:10006000E9FFF4CFEAFF000EE926040EEA22EE6A69
:10007000EE6AEE6AEE6ADF2AEDD7160E706E68A69B
:1000800004D0030E93EC04F0FAD700017D6B826B71
:10009000836B846B6D98040E716F040E726F616BCD
:1000A000606BECEF04F0E9EC04F0000160510BE14F
:1000B0006D6A696A6DB602D06D86FCD70001010ECB
:1000C000606F140E6F6E600508E16DBA06D0686A45
:1000D000696A69806988020E606F6850040B04E0E9
:1000E0006950040B01E065D86DB249D06850010B2E
:1000F00011E06950010B0EE09FDF0001040E606FFC
:100100000401200E026F040E036F080E016F006BD6
:100110008C0E00136850100B04E06950100B01E0C6
:1001200042D86850400B08E06950400B05E09DEC58
:1001300007F0060E93EC04F06850200B04E06950C1
:10014000200B01E01ED86850020B06E06950020B3C
:1001500003E09EEC07F06A6A040E0001605D0FE3A5
:1001600069A60DD0DF6A040EDF5C09E268A607D03D
:100170006CCF8AF0030ED7DB26D8DF2AF4D7ECEF5A
:1001800004F070A00DD0BAEC04F0EF50800807E145
:10019000D4DBEF50840803E1EDDB8C0EEF6E709042
:1001A000050E93EF04F06984040EBDDB6D829BEFB6
:1001B00007F06D929CEC07F0699468A403D0020EDE
:1001C000B2DBFBD71200FD0E00018A1518E17E0E8E
:1001D0008A15E8407F0B040DF3CF65F0F4CF66F08D
:1001E000000E6527040E662365C067F066C068F0E0
:1001F00044EC05F002E105EF01F016EF01F0FD0E11
:100200008A15040801E11AD8120097DBEF50800B21
:1002100002E093DBEF6A0001796B7A6B7E6B7F6B98
:100220007D6B8DD89FEC07F0BEEF02F0020E00014F
:100230007A5D02E148EF03F049EF01F0CADB7DDBB4
:10024000EF50400B01E0010EDF6E080E0001605D13
:1002500009E122C46EFF6E50000802E2100E01D0C8
:10026000040E606F7A0513E136EC05F0BFD9020E7B
:100270000001795D03E161DB840E07D0DF5003E10B
:100280005CDBC80E02D059DB880EEF6E01D001D8BE
:10029000A3D3E7DB030EE126020E00017A5D25E120
:1002A0006D50100B22E066DBEE52EF50006E016ADB
:1002B000080E00181AE1015018E1E6DB16E1C0DB78
:1002C000EF50800B12E1BCDBC0DBDF6A87DB22E290
:1002D000DF508CDBDF50EA6A200FE96E040EEA2261
:1002E000E552E750EF6EDF2AF1D77A6BB4DBEF6AA5
:1002F000000E7119006E72C001F0010E00C0DBFF2C
:10030000020E72C0DBFF010EDBCFE9FF020EDBCF76
:10031000EAFFEF6A000182AF0CD08551861107E039
:1003200005D086C0FAFF00018551F96EFADF0001A1
:10033000829F030EE15C02E2E16AE55207D3040109
:100340002051600BE842E842E842E842E8420009F6
:1003500001E0120021510C0A43E00B0A3FE00C0AB5
:1003600031E0010A22E00B0A1EE0020A1CE0030A47
:1003700018E0080A10E0010A0CE00F0A08E0030A7E
:1003800001E0120000017D8F080E606F12004EEF39
:1003900002F0A1EF03F00001610E7B6F000E7C6F95
:1003A0000CD089EF02F0F1EF01F0245100017B6FD6
:1003B0007C6B620E7B27000E7C237D81010E7E6F9D
:1003C0007D8F120000017D8F04012451EA6A620FC3
:1003D000E96E000EEA2222C4EFFF1200A1EF07F03F
:1003E00012003FDB050EE1260401220510E1205139
:1003F0001F0B00090CE100017D8F030E0401215D3C
:1004000004E10001010E896F02D00001896B040133
:1004100022513EE120511F0B02083AE124510F0BFB
:10042000000936E000017D8F040EDB6A020EF36ED8
:10043000040EDBCFF4FFF350F45C2AE2DFDA01E0D4
:10044000010E9DDA030E215D03E182DA840E1CD0D9
:1004500024510F0B016A700F006E0F0E0122020E65
:1004600000C0DBFF030E01C0DBFF020EDBCFE9FFA4
:10047000030EDBCFEAFFEE90ED5224AF03D068DA33
:10048000400E02D065DAC80EEF6E040EDB2ACED71E
:10049000050EE15C02E2E16AE55258D2800E0401E9
:1004A000205D36E10001C00E7D6F04012351030A77
:1004B0001EE0010A09E0030A29E10001E80E7B6F52
:1004C000110E7C6F120E1FD0B0DA510EF626130EED
:1004D0009DDA020E0001F76A7B25F66E7C51F72249
:1004E0000900F5CF7EF00A00F5CF7FF012009DDA0B
:1004F000530EF626130E8ADA7BC0F6FF7CC0F7FF98
:100500000800F55000017E6F7F6B120000017D6BCB
:10051000120018DA0401286B296B20511F0B020A04
:1005200011E0030A0CE0010A19E100017D8F0401CA
:1005300028810001890512E1040128830FD0000100
:100540007D8F0CD000017D8F59DA01E0010E17DAA2
:10055000FFD9EF50040B02E0010E286F00017DAFC0
:1005600007D0280E7B6F040E7C6F7D81020E7E6F9C
:10057000020EE15C02E2E16AE552E8D16D98000109
:100580007DBF07D082AF02D09ADA28D064DA840E19
:1005900026D082BF2AD0040120AF23D000017E5193
:1005A0000401265D00017F510401275904E226C49D
:1005B0007EF027C47FF01AD80001010E7A6FACD903
:1005C000D3D9800EEF6ED6D9EE52080EEF6ED2D987
:1005D0003CDAD0D9800EEF6E49DAAFD9C80EEF6E93
:1005E000120000016CDAC80EEF6E1200ABD90001E8
:1005F000080E7E5D000E7F590DE27EC0DEFF7FC0DB
:10060000DDFF795102E1010E03D0790506E1020E0A
:10061000796F03D0080EDE6EDD6A8FD9EF928DD927
:10062000EF908BD9010EDB50EF1287D9EE52DFCF5E
:10063000EFFF000EDB507E5F010EDB507F5B280E6C
:10064000876F040E886F7DB10FD0F6D91BE07BC099
:10065000F6FF7CC0F7FF7B2B000E7C230800F550D3
:10066000A5D9F3E2DB06F1D7E7D90CE07BC0E9FFBF
:100670007CC0EAFF7B2B000E7C23EF5097D9F4E27D
:10068000DB06F2D7020EE15C02E2E16AE5525ED1DE
:1006900059D970D9EE52EFCFDFFFDFCF00F0005015
:1006A0000001835D000E845903E283C0DFFF09D09F
:1006B000DF50006E016AE850835D836F01508459FA
:1006C000846F010EDB6ADF50F36E010EDBCFF4FFA7
:1006D000F350F45C10E2010EDB5088D980C0E9FFD2
:1006E00081C0EAFF802B000E8123E552E750EF6EB8
:1006F000010EDB2AE8D7000ED8808355000E845502
:100700000CE2D1D937D9EF50400B03E199D9C80E8B
:1007100002D096D9880EEF6E0ED092D996D9855117
:10072000861107E005D086C0FAFF00018551F96EF9
:10073000FADF0001829F020EE15C02E2E16AE5520B
:1007400005D100017D8F29D9030EE66EE66AE66ABF
:10075000620EE66E000E9FD922C461F004012251A0
:1007600004E10001100E606F12000001200E606FA6
:10077000A2EF07F0E7D8000EDE6E040EDD6EFD0E70
:10078000DB50040DF3CF02F0FE0EDB50080DF350EA
:100790000224006E016A020E0F0B05E0D8900132B0
:1007A0000032E806FBE1D89000360136D8900036DA
:1007B00001367CD90050EE260150ED22C9D8EF9EBB
:1007C000FD0EDB5002E156D901D059D9EA22DECF25
:1007D000EEFFDDCFEDFFBCD8EF8C020EE15C02E254
:1007E000E16AE552B3D0AED8FE0EDB50016A700F5D
:1007F000006E0F0E012200C0DEFF01C0DDFFFD0E06
:10080000DB50E66EA5D8E552E750EE6EED6AFD0EC0
:10081000DBA402D0E66A02D9FD0EDBA203D0010EF2
:10082000E66EFCD8020EE15C02E2E16AE5528ED08F
:1008300089D8FE0EDB5004E10ED9840EEF6E19D07C
:10084000FD0EDBCFE6FFFE0EDB50E824E552E72489
:10085000040DF3CF00F0F4CF01F0000E0026040EDB
:10086000012200C0DEFF01C0DDFF840E71D8E85018
:10087000EF12020EE15C02E2E16AE55267D062D853
:10088000FD0EDB5002E0FBD801D0F4D8EA22EECF17
:10089000DEFFEDCFDDFF5CD8EF7C5AD81BD9FB0E15
:1008A000DBCFEEFFFC0EDBCFEDFF52D8EE52FA0E9F
:1008B000DBCFEFFF400E4CD8E850EF16880E48D83B
:1008C000E850EF12FD0EDB5002E0D9D801D0D2D8AB
:1008D000EA22DECF00F0DDCF01F000C0F3FF01C05F
:1008E000F4FF020EE15C02E2E16AE5522FD0B9D8D2
:1008F000010EF36EFC0EDB5004E0D890F336E806F0
:10090000FCE1F31C006EFD0EDBCFE9FFFE0EDBCF3A
:10091000EAFF0050EF16CFD093D8EE52080EEF6EDC
:100920008FD86AEF05F0E66E680EE66E0F0EE66E83
:10093000DEDFE552E552E552120071C0E9FF72C0F8
:10094000EAFF12008ED8020EE1261200E16EB3D04B
:10095000DECFE9FFDDCFEAFF1200FE0EEA6ADB34EC
:10096000FE0BEA36E96E1200200EEE6E040EED6EFE
:1009700020EF05F065C0E9FF66C0EAFF1200026ED5
:1009800024510F0BE8240224040DF4CF01F08ED87B
:10099000F350EE260150ED221200020EE66EE66ADA
:1009A000E66A710EE66E0F0E4BEF05F0E66E87C03D
:1009B000E9FF88C0EAFF872B000E8823E552E75045
:1009C000EF6EDF06010E1200280EEE6E040EED6EC5
:1009D000120047D8E6521200E5526DD0DF50006E8B
:1009E000016A080E005C000E01581200EA6A280F26
:1009F000E96E040EEA22EF50E66E1200000EDE6E83
:100A0000040EDD6E04012451800B1200F722090050
:100A1000F5CF7BF00A00F5CF7CF01200FE0EDBCFA5
:100A2000E6FFA8DEE552E55212002251F66EF76AA3
:100A3000D890F636F736120039D8EE50ED10120085
:100A400067C0E9FF68C0EAFF120044D8200EEE6ECE
:100A5000040EED6E120060DF87DF8C0EEF6E9DEFEF
:100A600004F0D9CFE6FFE1CFD9FF120066DF32D81C
:100A7000E4EF04F072DF690EE926000E12006DDF6C
:100A8000710EE926000E120075DFEF503C0BE842B4
:100A9000E8420D081200E66E97EC0AF0006E050EB3
:100AA000E15E0050120038DFE4EF04F0D9CFE9FF37
:100AB000DACFEAFF1200E552E7CFD9FF1200020EAB
:100AC0007A6F3BDFEE52EF6A38DFC80EEF6EEBDF76
:0E0AD00020EF05F0020EE926000EEA221200C9
:020ADE00D9CF6E
:100AE000E6FFE1CFD9FFE652949E938093929490D3
:100AF0009492948C8B808B82E66A030EE66E020ED3
:100B0000E66E65EC0AF0E552E552E552DF6A090E41
:100B1000DF5C10E2DF50EA6A970FE96E000EEA220E
:100B2000EF6ADF50EA6AA00FE96E000EEA22EF6A70
:100B3000DF2AEDD7E552E552E7CFD9FF1200D9CF32
:100B4000E6FFE1CFD9FFFE0EDB50F00BE8380F0BCC
:100B5000006EFE0EDB500F0B100DF3500DD9CC0BB9
:100B6000E840E8403F0B006EFE0EDB50330B040DF7
:100B7000F35002D9AA0BE8407F0B006EFE0EDB504B
:100B8000550BE824F9D8C96EC7A0FED7EED8C9CF57
:100B9000EFFF00D9F00BE8380F0B006EFBD80F0BFE
:100BA000100DF350F0D8F6D8CC0BE840E8403F0BDE
:100BB000006EF0D8330B040DF350E5D8EBD8AA0B38
:100BC000E8407F0B006EE6D8550BE824DCD8E552F0
:100BD000E7CFD9FF12000001D851010A5BE0010AFA
:100BE00001E0B0D08B900000970EE66E000EE66E2E
:100BF000010EE66EA4DFE552E552E552980EE66E70
:100C0000000EE66E420EE66E9ADFE552E552E552C0
:100C1000990EE66E000EE66EE66A91DFE552E55249
:100C2000E5529A0EE66E000EE66EE66A88DFE55241
:100C3000E552E5529B0EE66E000EE66EE66A7FDF39
:100C4000E552E552E5529C0EE66E000EE66EE66A4F
:100C500076DFE552E552E5529D0EE66E000EE66E39
:100C6000E66A6DDFE552E552E5529E0EE66E000E35
:100C7000E66EE66A64DFE552E552E5529F0EE66EE7
:100C8000000EE66EE66A5BDFE552E552E5528B80C8
:100C900000005BD08B920000A00EE66E000EE66EA8
:100CA000010EE66E4CDFE552E552E552A10EE66E0E
:100CB000000EE66E420EE66E42DFE552E552E55268
:100CC000A20EE66E000EE66EE66A39DFE552E552E8
:100CD000E552A30EE66E000EE66EE66A30DFE552E0
:100CE000E552E552A40EE66E000EE66EE66A27DFD8
:100CF000E552E552E552A50EE66E000EE66EE66A96
:100D00001EDFE552E552E552A60EE66E000EE66ED7
:100D1000E66A15DFE552E552E552A70EE66E000ED3
:100D2000E66EE66A0CDFE552E552E552A80EE66E85
:100D3000000EE66EE66A03DFE552E552E5528B826D
:100D4000000003D00001D86B00D00001D82B020EA8
:100D50000001E76ED819E8AE02D0E73402D0E750C0
:100D6000D85D02E30001D86B1200FC0EDBCFE9FF77
:100D7000FD0EDBCFEAFF12000010E76EFE0EE7CF9C
:100D8000DBFFDB5012000010E66EEFDFE552E750AC
:0A0D9000EF6E1200EADFEF501200D0
:060D9A0019D91100D8CFA9
:100DA000E4FFE0CFE4FFE46E12D9E550E5CFE0FFC9
:100DB000E5CFD8FF100004D853EC00F011D8FCD7D1
:100DC0001CEC00F0E4EF06F0B0EC09F06FEC05F07D
:100DD0000001BF6BC06BC16BC26BC36BC46B1200F5
:100DE000200E0001605D05E36D50020B01E0120072
:100DF00001D81200D9CFE6FFE1CFD9FFE652DAECF5
:100E000009F0EBEC05F00001BF51C01102E1000E4A
:100E100008D0BFC0E9FFC0C0EAFFEF50800B01E07F
:100E2000010E000922E1DF6A00019B1DE1D80F0BD2
:100E3000DFD8D4D8A2D8C7D8A0D89CC0EFFF9DD8FF
:100E40009DC0EFFF9AD89EC0EFFF97D89FC0EFFFDD
:100E5000DFCFE6FF330EE66E040EE66E010EE66EA1
:100E6000A4D8F3CFBFF0F4CFC0F00001C151C2113C
:100E700002E1000E08D0C1C0E9FFC2C0EAFFEF5096
:100E8000800B01E0010E000923E1DF6A0001A41DCF
:100E9000B4D80F0BB2D8A2D878D895D876D8A5C038
:100EA000EFFF73D8A6C0EFFF70D8A7C0EFFF6DD8D3
:100EB000A8C0EFFFDFCFE6FF3E0EE66E040EE66E43
:100EC000010EE66E020E71D8F3CFC1F0F4CFC2F07E
:100ED0000001C351C41102E1000E08D0C3C0E9FFF4
:100EE000C4C0EAFFEF50800B01E0010E00091EE1D3
:100EF000DF6A53D8E3C0EFFF50D8E4C0EFFF4DD80E
:100F0000E5C0EFFF4AD8E6C0EFFF47D8E7C0EFFFE4
:100F1000DFCFE6FF490EE66E040EE66E010EE66ECA
:100F2000030E43D8F3CFC3F0F4CFC4F0E552E5523B
:100F3000E7CFD9FF1200120012001200120002EFD8
:100F400008F012001A0EE66E010E37D81A0EE66E81
:100F5000020E33D81A0EE66E030EDDEF07F06D8435
:100F60000001080EC66F070EC76FC607000EC75BED
:100F7000C651C711FAE16D941200DF50DF2AEA6A08
:100F8000330FE96E040EEA221200DF50DF2AEA6A0C
:100F90003E0FE96E040EEA221200DF50DF2AEA6AF1
:100FA000490FE96E040EEA221200E66E3FEC04F0EF
:100FB000006E050EE15E00501200E66EF3EC03F0E9
:100FC000E552E5521200E552E750EF6E1200DACF1B
:100FD000E4FFE652E552E5CFDAFF1200E8380F0BE6
:100FE000EA6AC80FE96E000EEA22EF50E66E1200C0
:100FF000E66EC3DFE8DF9A1D1200E66EC6DFE3DFB0
:04100000A31D12001A
:0C100400040120511F0B010801E0120044
:10101000245137E1060E215D17E12351230A11E027
:10102000010A07E0030A10E1000161050DE1C2D8E1
:1010300004D00001610508E1D0D87E6F7F6BC00E3F
:1010400002D00001800E7D6F97D801E0120021517F
:101050000B0A15E0080A10E0090A0DE0080A09E089
:101060000B0A05E0080A01E01200B9EF08F0BAEF38
:1010700008F08CD802D0A5D093D87D6F1200E7EF8E
:1010800008F0240537E1060E215D17E12351230AFC
:1010900011E0010A07E0030A10E1000161050DE11A
:1010A00089D804D00001610508E197D87E6F7F6B75
:1010B000C00E02D00001800E7D6F5ED801E01200EC
:1010C00021510B0A15E0080A10E0090A0DE0080A90
:1010D00009E00B0A05E0080A01E01200B9EF08F088
:1010E000BAEF08F053D802D06CD05AD87D6F1200F6
:1010F000E7EF08F0020E245D3BE1060E215D1CE1E6
:101100002351230A16E0010A07E0030A15E1000152
:10111000610512E14FD809D0000161050DE1000120
:10112000200E7B6F130E7C6F4A0E7E6F7F6BC00E9E
:1011300002D00001800E7D6F1FD801E01200215106
:101140000B0A15E0080A10E0090A0DE0080A09E098
:101150000B0A05E0080A01E01200B9EF08F0BAEF47
:1011600008F014D802D02DD01BD87D6F12002FD8D4
:10117000120012001200120004012051600BE8421C
:10118000E842E842E842E842010812000001EE0E9F
:101190007B6F000E7C6F010E7E6F7F6BC10E1200A5
:1011A0000001EF0E7B6F000E7C6F010E7E6F7F6B78
:1011B000810E120000010C0E7B6F120E7C6F090E67
:1011C00012000001800E7D6F23C4EEF012000001BA
:1011D000800E7D6F22C4EFF012000001D60E7B6FEF
:0811E000120E7C6F4A0E120092
:0811E8001201000200000008E2
:1011F000D804560001000102000109025400030155
:1012000002803209040000010300000309211101DA
:101210000001224A000705810308000A09040100B1
:101220000103000004092111010001224A00070501
:10123000820308000A0904020001030000050921D5
:10124000110100012231000705830308000A04038D
:10125000090434034D006900630072006F006300ED
:101260006800690070002000540065006300680099
:101270006E006F006C006F0067007900200049006D
:101280006E0063002E002A03500053005800260011
:10129000470061006D00650070006F00720074000F
:1012A000200041006400610070007400650072005D
:1012B0000A0350005300580031000A035000530045
:1012C000580032001203470061006D0065005000B5
:1012D0006F007200740005010905A10115002501C8
:1012E000350045017501950D05091901290C81028B
:1012F0009503810105012507463B017504950165AC
:10130000140939814265009501810126FF0046FFDD
:10131000000930093109320935750895048102C088
:1013200005010904A10116000026FF0075089501BA
:1013300009308102093181020932810209358102B5
:101340000509190129041500250175019508810277
:0F135000C0FA114E1252128612B012BA12C41203
:10136000D9CFE6FFE1CFD9FFE6529384938A9388E1
:1013700093860001E86B0F0EC16EF00EC1140B09CD
:10138000C16E380EC06E9280928292849286C28222
:10139000DF6A050EDF5C09E2DF50EA6AE30FE96EFF
:1013A000000EEA22EF6ADF2AF4D7E552E552E7CFD2
:1013B000D9FF12000001E76B81A4E78181AAE783CE
:1013C00081A8E78581A6E787C2B21200C428E86C2D
:1013D000E66EE8C0E9FFEA6AE9BEEA68E30EE926DC
:1013E000000EEA22E552E750EF6EE82B040EE76E9E
:1013F000E819E8AE02D0E73402D0E750E85D01E337
:10140000E86BE8C0E9FFEA6AE9BEEA68E90EE926A6
:10141000000EEA22EF500F0BF36EF346F346C30EB5
:0C142000C214F310C26EC280C28212001F
:04142C001E0EF66E2C
:10143000000EF76E000EF86E00010900F550DE6F29
:101440000900F550DF6F03E1DE6701D03DD00900F0
:10145000F550D96F0900F550DA6F0900F550DB6FD0
:1014600009000900F550E96E0900F550EA6E09001F
:1014700009000900F550DC6F0900F550DD6F090027
:101480000900F6CFE0F0F7CFE1F0F8CFE2F0D9C0F5
:10149000F6FFDAC0F7FFDBC0F8FF0001DC5302E122
:1014A000DD5307E00900F550EE6EDC07F8E2DD07DA
:1014B000F9D7E0C0F6FFE1C0F7FFE2C0F8FF000196
:0A14C000DE07000EDF5BBFD712004D
:0614CA00D9CFE6FFDACFE6
:1014D000E6FFE1CFD9FFE2CFDAFF3F0EC716C66ABB
:1014E000FD0EDB50C612FB0EDB50C712FC0EDB50AC
:1014F000030A09E0010A04E0020A06E1C78C04D0ED
:10150000C78CC68801D0C688FD0EDB50050A03E0F3
:10151000010A03E1928A938201D093929380949E70
:0E152000C68AE552E5CFDAFFE7CFD9FF120009
:02152E00FE0EAF
:10153000E3CFE9FFFF0EE3CFEAFFE9CFF3FFEACF06
:10154000F4FFFB0EE35003E1FC0EE35009E0FB0E59
:10155000E30602E2FC0EE306FD0EE350EE6EF1D769
:02156000120077
:0E156200000EF36E00EE00F0080E01D812002D
:10157000EA6002D0EE6AFCD7F350E9601200EE6A2E
:02158000FCD796
:0E15820013EE00F023EE00F0F86A049C16EC65
:0E1590000AF003EC00F0DBEC06F0FBD71200D3
:02159E00080043
:0F15A000020104080308060708080508080800E8
:020000040030CA
:010000002CD3
:010001000EF0
:010002003FBE
:010003001EDE
:0100050001F9
:010006008178
:010008000FE8
:01000900C036
:01000A000FE6
:01000B00E014
:01000C000FE4
:01000D0040B2
:00000001FF
