:020000040000FA
:060000008EEF07F0120074
:020006000000F8
:0600080066EF05F0120096
:02000E001200DE
:0600180068EF05F0120084
:02001E00E8EC0C
:1000200004F06A6A686A9F0E6B6EFB0E696E6D8CD7
:100030006D9C6E6ACCEC04F0DF6ADF50006E016AE2
:10004000040E005C000E015810E2DF50040DF3CFE7
:10005000E9FFF4CFEAFF000EE926040EEA22EE6A79
:10006000EE6AEE6AEE6ADF2AE8D7160E706E68A6B0
:1000700004D0030E92EC04F0FAD70001736B786B96
:10008000796B7A6B6D98040E6B6F040E6C6F616BFD
:10009000606BEBEF04F0E8EC04F0000160510BE161
:1000A0006D6A696A6DB602D06D86FCD70001010EDB
:1000B000606F140E6F6E600508E16DBA06D0686A55
:1000C000696A69806988020E606F6850040B04E0F9
:1000D0006950040B01E066D86DB249D06850010B3D
:1000E00011E06950010B0EE09ADF0001040E606F11
:1000F0000401100E026F040E036F080E016F006BF7
:100100008C0E00136850100B04E06950100B01E0D6
:1001100043D86850400B08E06950400B05E0C7EC3D
:1001200005F0060E92EC04F06850200B04E06950D4
:10013000200B01E01ED86850020B06E06950020B4C
:1001400003E0C8EC05F06A6A040E0001605D0FE38D
:1001500069A60DD0DF6A040EDF5C09E268A607D04D
:100160006CCF80F0030EDEDB27D8DF2AF4D7EBEF6D
:1001700004F070A00ED0B9EC04F0EF50800808E154
:10018000DBDBEF50840804E1B9EC04F08C0EEF6E79
:100190007090050E92EF04F06984040EC3DB6D824B
:1001A000C5EF05F06D92C6EC05F0699468A403D024
:1001B000020EB8DBFBD71200FD0E0001801518E11E
:1001C0007E0E8015E8407F0B040DF3CF63F0F4CF73
:1001D00064F0000E6327040E642363C065F064C0FE
:1001E00066F03BEC05F002E1FEEF00F00FEF01F0EE
:1001F000FD0E8015040801E11AD812009DDBEF50B6
:10020000800B02E099DBEF6A00016F6B706B746B1F
:10021000756B736B93D8C9EC05F0BDEF02F0020E5D
:100220000001705D02E147EF03F042EF01F0D0DB27
:1002300083DBEF50400B01E0010EDF6E080E000182
:10024000605D09E112C46EFF6E50000802E2100EFC
:1002500001D0040E606F700513E12DEC05F0C5D9D7
:10026000020E00016F5D03E167DB840E07D0DF50F3
:1002700003E162DBC80E02D05FDB880EEF6E01D0B7
:1002800001D8A9D3E5DB030EE126020E0001705D63
:100290002BE16D50100B28E06CDBEE52EF50006E3E
:1002A000016A080E001820E101501EE1E4DB1CE1A8
:1002B000BEDBEF50800B18E1BADBBEDBDF6ADF503C
:1002C000006E016A080E005C000E015822E2DF5049
:1002D00084DBDF50EA6A100FE96E040EEA22E55271
:1002E000E750EF6EDF2AEBD7706BACDBEF6A000EE6
:1002F0006B19006E6CC001F0010E00C0DBFF020E36
:100300006CC0DBFF010EDBCFE9FF020EDBCFEAFFA3
:10031000EF6A000178AF0CD07B517C1107E005D06B
:100320007CC0FAFF00017B51F96EFADF0001789F73
:10033000030EE15C02E2E16AE55207D304011051C9
:10034000600BE842E842E842E842E842000901E086
:10035000120011510C0A43E00B0A3FE00C0A31E095
:10036000010A22E00B0A1EE0020A1CE0030A18E060
:10037000080A10E0010A0CE00F0A08E0030A01E095
:1003800012000001738F080E606F12004DEF02F033
:10039000A0EF03F00001610E716F000E726F0CD0C0
:1003A00088EF02F0F0EF01F014510001716F726BF1
:1003B000620E7127000E72237381010E746F738FAA
:1003C00012000001738F04011451EA6A620FE96E92
:1003D000000EEA2212C4EFFF1200CBEF05F012006C
:1003E00037DB050EE1260401120510E110511F0B49
:1003F00000090CE10001738F030E0401115D04E19B
:100400000001010E7F6F02D000017F6B04011251C9
:100410003EE110511F0B02083AE114510F0B000985
:1004200036E00001738F040EDB6A020EF36E040ED9
:10043000DBCFF4FFF350F45C2AE2D7DA01E0010EDF
:100440009DDA030E115D03E182DA840E1CD0145193
:100450000F0B016A700F006E0F0E0122020E00C01A
:10046000DBFF030E01C0DBFF020EDBCFE9FF030E53
:10047000DBCFEAFFEE90ED5214AF03D068DA400E06
:1004800002D065DAC80EEF6E040EDB2ACED7050E59
:10049000E15C02E2E16AE55258D2800E0401105D8F
:1004A00036E10001C00E736F04011351030A1EE010
:1004B000010A09E0030A29E10001B00E716F0C0E78
:1004C000726F120E1FD0A8DA7F0EF6260D0E95DA87
:1004D000020E0001F76A7125F66E7251F7220900CB
:1004E000F5CF74F00A00F5CF75F0120095DA810EA1
:1004F000F6260D0E82DA71C0F6FF72C0F7FF080013
:10050000F5500001746F756B12000001736B1200DF
:1005100018DA0401186B196B10511F0B020A11E055
:10052000030A0CE0010A19E10001738F040118812C
:1005300000017F0512E1040118830FD00001738FC1
:100540000CD00001738F51DA01E0010E17DAFFD9E8
:10055000EF50040B02E0010E186F000173AF07D0DB
:10056000180E716F040E726F7381020E746F020E9B
:10057000E15C02E2E16AE552E8D16D98000173BFE7
:1005800007D078AF02D092DA28D05CDA840E26D079
:1005900078BF2AD0040110AF23D0000174510401A8
:1005A000165D000175510401175904E216C474F078
:1005B00017C475F01AD80001010E706FACD9D3D9E9
:1005C000800EEF6ED6D9EE52080EEF6ED2D934DA25
:1005D000D0D9800EEF6E41DAAFD9C80EEF6E12009F
:1005E000000164DAC80EEF6E1200ABD90001080EEC
:1005F000745D000E75590DE274C0DEFF75C0DDFF3D
:100600006F5102E1010E03D06F0506E1020E6F6F1C
:1006100003D0080EDE6EDD6A8FD9EF928DD9EF9090
:100620008BD9010EDB50EF1287D9EE52DFCFEFFFEF
:10063000000EDB50745F010EDB50755B180E7D6F92
:10064000040E7E6F73B10FD0EED91BE071C0F6FFC0
:1006500072C0F7FF712B000E72230800F550A5D968
:10066000F3E2DB06F1D7DFD90CE071C0E9FF72C01D
:10067000EAFF712B000E7223EF5097D9F4E2DB06EC
:10068000F2D7020EE15C02E2E16AE5525ED159D98D
:1006900070D9EE52EFCFDFFFDFCF00F00050000146
:1006A000795D000E7A5903E279C0DFFF09D0DF508F
:1006B000006E016AE850795D796F01507A597A6F5E
:1006C000010EDB6ADF50F36E010EDBCFF4FFF35057
:1006D000F45C10E2010EDB5080D976C0E9FF77C0F0
:1006E000EAFF762B000E7723E552E750EF6E010EFE
:1006F000DB2AE8D7000ED8807955000E7A550CE237
:10070000C9D937D9EF50400B03E191D9C80E02D0B7
:100710008ED9880EEF6E0ED08AD98ED97B517C117E
:1007200007E005D07CC0FAFF00017B51F96EFADFCB
:100730000001789F020EE15C02E2E16AE55205D118
:100740000001738F29D9010EE66EE66AE66A620E31
:10075000E66E000E97D912C461F00401125104E153
:100760000001100E606F12000001200E606FCCEFD0
:1007700005F0E7D8000EDE6E040EDD6EFD0EDB50D8
:10078000040DF3CF02F0FE0EDB50080DF3500224EF
:10079000006E016A020E0F0B05E0D89001320032A4
:1007A000E806FBE1D89000360136D89000360136D5
:1007B00074D90050EE260150ED22C9D8EF9EFD0EEF
:1007C000DB5002E14ED901D051D9EA22DECFEEFF53
:1007D000DDCFEDFFBCD8EF8C020EE15C02E2E16AF6
:1007E000E552B3D0AED8FE0EDB50016A700F006E3A
:1007F0000F0E012200C0DEFF01C0DDFFFD0EDB5049
:10080000E66EA5D8E552E750EE6EED6AFD0EDBA46C
:1008100002D0E66AFAD8FD0EDBA203D0010EE66E26
:10082000F4D8020EE15C02E2E16AE5528ED089D88A
:10083000FE0EDB5004E106D9840EEF6E19D0FD0EDA
:10084000DBCFE6FFFE0EDB50E824E552E724040D83
:10085000F3CF00F0F4CF01F0000E0026040E0122C9
:1008600000C0DEFF01C0DDFF840E71D8E850EF123A
:10087000020EE15C02E2E16AE55267D062D8FD0E49
:10088000DB5002E0F3D801D0ECD8EA22EECFDEFF55
:10089000EDCFDDFF5CD8EF7C5AD813D9FB0EDBCF50
:1008A000EEFFFC0EDBCFEDFF52D8EE52FA0EDBCF9F
:1008B000EFFF400E4CD8E850EF16880E48D8E850AD
:1008C000EF12FD0EDB5002E0D1D801D0CAD8EA22E7
:1008D000DECF00F0DDCF01F000C0F3FF01C0F4FF78
:1008E000020EE15C02E2E16AE5522FD0B1D8010EBE
:1008F000F36EFC0EDB5004E0D890F336E806FCE122
:10090000F31C006EFD0EDBCFE9FFFE0EDBCFEAFF2E
:100910000050EF16C7D08BD8EE52080EEF6E87D876
:1009200061EF05F0E66E680EE66E0F0EE66EDEDF36
:10093000E552E552E55212006BC0E9FF6CC0EAFFD8
:10094000120086D8020EE1261200E16EABD0DECF97
:10095000E9FFDDCFEAFF1200FE0EEA6ADB34FE0B90
:10096000EA36E96E1200100EEE6E040EED6E17EF11
:1009700005F063C0E9FF64C0EAFF1200026E145183
:100980000F0BE8240224040DF4CF01F086D8F350B5
:10099000EE260150ED221200000EE66EE66AE66ACF
:1009A000710EE66E0F0E42EF05F0E66E7DC0E9FFB8
:1009B0007EC0EAFF7D2B000E7E23E552E750EF6EEE
:1009C000DF06010E1200180EEE6E040EED6E120020
:1009D0003FD8E6521200E55265D0EA6A180FE96E78
:1009E000040EEA22EF50E66E1200000EDE6E040ED8
:1009F000DD6E04011451800B1200F7220900F5CFBF
:100A000071F00A00F5CF72F01200FE0EDBCFE6FFA8
:100A1000B0DEE552E55212001251F66EF76AD89038
:100A2000F636F736120039D8EE50ED10120065C0D8
:100A3000E9FF66C0EAFF120044D8100EEE6E040E05
:100A4000ED6E120068DF8FDF8C0EEF6E9CEF04F00E
:100A5000D9CFE6FFE1CFD9FF12006EDF32D8E3EF46
:100A600004F07ADF670EE926000E120075DF6B0EC8
:100A7000E926000E12007DDFEF503C0BE842E84211
:100A80000D081200E66E4CEC07F0006E050EE15EFC
:100A90000050120040DFE3EF04F0D9CFE9FFDACFD6
:100AA000EAFF1200E552E7CFD9FF1200020E706F85
:100AB00043DFEE52EF6A40DFC80EEF6EEBDF17EF59
:0C0AC00005F0020EE926000EEA221200EA
:040ACC007CD81100C1
:100AD000D8CFE4FFE0CFE4FFE46E75D8E550E5CF72
:100AE000E0FFE5CFD8FF100004D84BEC00F00FD8A2
:100AF000FCD70F0EC1120FEC00F07FEF05F013ECE6
:100B000007F066EC07F000018F6B906B1200200E6F
:100B10000001605D05E36D50020B01E0120001D899
:100B2000120020EC07F073EC07F000018F519011D8
:100B300002E1000E08D08FC0E9FF90C0EAFFEF503D
:100B4000800B01E0010E00091FE1A5C023F4A6C03F
:100B500024F40401256B266B276BA1C028F4296BB4
:100B60002A6B080EE66E230EE66E040EE66E010E8C
:100B7000E66EE66E3EEC04F0006E050EE15E00509F
:100B8000F3CF8FF0F4CF90F0120012001200120099
:100B90001200EAEF05F012001A0EE66E010EE66E84
:100BA000F2EC03F0E552E55212006D840001080EEC
:100BB000926F070E936F9207000E935B9251931101
:100BC000FAE16D941200DACFE4FFE652E552E5CF88
:040BD000DAFF120036
:0C0BD400040110511F0B010801E0120089
:100BE000145101E01200060E115D21E11351230A98
:100BF0001BE0010A0CE0030A1AE10001610517E19C
:100C00000001D40E716F0C0E726F090E09D0000135
:100C100061050DE100014A0E716F0D0E726F350E08
:100C2000746F756BC00E02D00001800E736F0401EB
:100C30001051600BE842E842E842E842E84201080D
:100C400001E0120011510B0A2AE0080A1DE0090A0E
:100C500015E0080A09E00B0A05E0080A01E01200A5
:100C600055EF06F056EF06F000019E0E716F000E74
:100C7000726F010E746F756BC10E0FD00001800E84
:100C8000736F13C49EF0120000019F0E716F000E6F
:100C9000726F010E746F756B810E736F120000011D
:100CA000800E736F12C49FF0120012001200120027
:100CB0001201000200000008D804560001000102E1
:100CC0000001090222000101008032090400000134
:100CD00003000000092111010001223500070581F0
:100CE0000308000A0403090434037300700072004F
:100CF000750074002E006400650020002000540080
:100D00006500630068006E006F006C006F00670094
:100D10007900200020002000200020002E034A003F
:100D20006F007900730074006900630020002000E8
:100D30005400650073007400000000000000000013
:100D40000000000000000000000005010904A101EE
:100D500016000026FF00750895010930810209314F
:100D600081020932810209338102093481020509B5
:100D70001901290415002501750195188102C0C2C9
:070D80000CE40CE80C1C0D53
:080D8800060EF66E000EF76E78
:100D9000000EF86E00010900F550996F0900F5503A
:100DA0009A6F03E1996701D03DD00900F550946F27
:100DB0000900F550956F0900F550966F090009007C
:100DC000F550E96E0900F550EA6E090009000900C6
:100DD000F550976F0900F550986F09000900F6CF9C
:100DE0009BF0F7CF9CF0F8CF9DF094C0F6FF95C034
:100DF000F7FF96C0F8FF0001975302E1985307E010
:100E00000900F550EE6E9707F8E29807F9D79BC0F6
:100E1000F6FF9CC0F7FF9DC0F8FF00019907000E88
:060E20009A5BBFD712002F
:0A0E26000001A46B500EA56FA66F2B
:100E3000070EC16E380EC06E96809682C282120076
:100E4000C2B212000001A451010A06E0010A07E142
:100E5000C428E86CA56F03D0C428E86CA66FA42B47
:100E6000020EE76EA419E8AE02D0A43503D0E75015
:100E7000D880A45501E2A46BA451010A06E0010A3E
:100E800008E1C30EC214140903D0C30EC21418091A
:080E9000C26EC280C282120092
:080E9800FE0EE3CFE9FFFF0E9F
:100EA000E3CFEAFFE9CFF3FFEACFF4FFFB0EE35015
:100EB00003E1FC0EE35009E0FB0EE30602E2FC0E48
:0C0EC000E306FD0EE350EE6EF1D71200C9
:040ECC00F19E938878
:100ED000938A958C958E8B908B928B940001A16B4D
:100EE000A26BA36B12000001A16B83ACA18183AE46
:0C0EF000A18381A8A18581AAA18712001E
:040EFC00000EF36E83
:100F000000EE00F0080E01D81200EA6002D0EE6A8E
:0C0F1000FCD7F350E9601200EE6AFCD739
:040F1C0013EE00F0E0
:100F200023EE00F0F86A049CC4EC06F007EC00F035
:080F300074EC05F0FBD7120080
:020000040030CA
:0100000024DB
:010001000EF0
:010002003FBE
:010003001EDE
:0100050001F9
:010006008178
:010008000FE8
:01000900C036
:01000A000FE6
:01000B00E014
:01000C000FE4
:01000D0040B2
:00000001FF
